{
  "_format": "hh-sol-artifact-1",
  "contractName": "MintingContract",
  "sourceName": "contracts/MintingContract.sol",
  "abi": [
    {
      "inputs": [
        {
          "internalType": "string",
          "name": "baseTokenURI",
          "type": "string"
        }
      ],
      "stateMutability": "nonpayable",
      "type": "constructor"
    },
    {
      "anonymous": false,
      "inputs": [
        {
          "indexed": true,
          "internalType": "address",
          "name": "owner",
          "type": "address"
        },
        {
          "indexed": true,
          "internalType": "address",
          "name": "approved",
          "type": "address"
        },
        {
          "indexed": true,
          "internalType": "uint256",
          "name": "tokenId",
          "type": "uint256"
        }
      ],
      "name": "Approval",
      "type": "event"
    },
    {
      "anonymous": false,
      "inputs": [
        {
          "indexed": true,
          "internalType": "address",
          "name": "owner",
          "type": "address"
        },
        {
          "indexed": true,
          "internalType": "address",
          "name": "operator",
          "type": "address"
        },
        {
          "indexed": false,
          "internalType": "bool",
          "name": "approved",
          "type": "bool"
        }
      ],
      "name": "ApprovalForAll",
      "type": "event"
    },
    {
      "anonymous": false,
      "inputs": [
        {
          "indexed": true,
          "internalType": "address",
          "name": "from",
          "type": "address"
        },
        {
          "indexed": true,
          "internalType": "address",
          "name": "to",
          "type": "address"
        },
        {
          "indexed": true,
          "internalType": "uint256",
          "name": "tokenId",
          "type": "uint256"
        }
      ],
      "name": "Transfer",
      "type": "event"
    },
    {
      "inputs": [
        {
          "internalType": "address",
          "name": "to",
          "type": "address"
        },
        {
          "internalType": "uint256",
          "name": "tokenId",
          "type": "uint256"
        }
      ],
      "name": "approve",
      "outputs": [],
      "stateMutability": "nonpayable",
      "type": "function"
    },
    {
      "inputs": [
        {
          "internalType": "address",
          "name": "owner",
          "type": "address"
        }
      ],
      "name": "balanceOf",
      "outputs": [
        {
          "internalType": "uint256",
          "name": "",
          "type": "uint256"
        }
      ],
      "stateMutability": "view",
      "type": "function"
    },
    {
      "inputs": [
        {
          "internalType": "uint256",
          "name": "tokenId",
          "type": "uint256"
        }
      ],
      "name": "getApproved",
      "outputs": [
        {
          "internalType": "address",
          "name": "",
          "type": "address"
        }
      ],
      "stateMutability": "view",
      "type": "function"
    },
    {
      "inputs": [
        {
          "internalType": "address",
          "name": "owner",
          "type": "address"
        },
        {
          "internalType": "address",
          "name": "operator",
          "type": "address"
        }
      ],
      "name": "isApprovedForAll",
      "outputs": [
        {
          "internalType": "bool",
          "name": "",
          "type": "bool"
        }
      ],
      "stateMutability": "view",
      "type": "function"
    },
    {
      "inputs": [],
      "name": "mintBasicNFT",
      "outputs": [],
      "stateMutability": "nonpayable",
      "type": "function"
    },
    {
      "inputs": [],
      "name": "name",
      "outputs": [
        {
          "internalType": "string",
          "name": "",
          "type": "string"
        }
      ],
      "stateMutability": "view",
      "type": "function"
    },
    {
      "inputs": [
        {
          "internalType": "uint256",
          "name": "tokenId",
          "type": "uint256"
        }
      ],
      "name": "ownerOf",
      "outputs": [
        {
          "internalType": "address",
          "name": "",
          "type": "address"
        }
      ],
      "stateMutability": "view",
      "type": "function"
    },
    {
      "inputs": [
        {
          "internalType": "address",
          "name": "from",
          "type": "address"
        },
        {
          "internalType": "address",
          "name": "to",
          "type": "address"
        },
        {
          "internalType": "uint256",
          "name": "tokenId",
          "type": "uint256"
        }
      ],
      "name": "safeTransferFrom",
      "outputs": [],
      "stateMutability": "nonpayable",
      "type": "function"
    },
    {
      "inputs": [
        {
          "internalType": "address",
          "name": "from",
          "type": "address"
        },
        {
          "internalType": "address",
          "name": "to",
          "type": "address"
        },
        {
          "internalType": "uint256",
          "name": "tokenId",
          "type": "uint256"
        },
        {
          "internalType": "bytes",
          "name": "_data",
          "type": "bytes"
        }
      ],
      "name": "safeTransferFrom",
      "outputs": [],
      "stateMutability": "nonpayable",
      "type": "function"
    },
    {
      "inputs": [
        {
          "internalType": "address",
          "name": "operator",
          "type": "address"
        },
        {
          "internalType": "bool",
          "name": "approved",
          "type": "bool"
        }
      ],
      "name": "setApprovalForAll",
      "outputs": [],
      "stateMutability": "nonpayable",
      "type": "function"
    },
    {
      "inputs": [
        {
          "internalType": "bytes4",
          "name": "interfaceId",
          "type": "bytes4"
        }
      ],
      "name": "supportsInterface",
      "outputs": [
        {
          "internalType": "bool",
          "name": "",
          "type": "bool"
        }
      ],
      "stateMutability": "view",
      "type": "function"
    },
    {
      "inputs": [],
      "name": "symbol",
      "outputs": [
        {
          "internalType": "string",
          "name": "",
          "type": "string"
        }
      ],
      "stateMutability": "view",
      "type": "function"
    },
    {
      "inputs": [],
      "name": "tokenCount",
      "outputs": [
        {
          "internalType": "uint256",
          "name": "",
          "type": "uint256"
        }
      ],
      "stateMutability": "view",
      "type": "function"
    },
    {
      "inputs": [
        {
          "internalType": "uint256",
          "name": "tokenId",
          "type": "uint256"
        }
      ],
      "name": "tokenURI",
      "outputs": [
        {
          "internalType": "string",
          "name": "",
          "type": "string"
        }
      ],
      "stateMutability": "view",
      "type": "function"
    },
    {
      "inputs": [
        {
          "internalType": "address",
          "name": "from",
          "type": "address"
        },
        {
          "internalType": "address",
          "name": "to",
          "type": "address"
        },
        {
          "internalType": "uint256",
          "name": "tokenId",
          "type": "uint256"
        }
      ],
      "name": "transferFrom",
      "outputs": [],
      "stateMutability": "nonpayable",
      "type": "function"
    }
  ],
  "bytecode": "0x608060405260006007553480156200001657600080fd5b50604051620033393803806200333983398181016040528101906200003c919062000335565b6040518060400160405280600981526020017f5371756172654e465400000000000000000000000000000000000000000000008152506040518060400160405280600681526020017f53515541524500000000000000000000000000000000000000000000000000008152508160009080519060200190620000c092919062000213565b508060019080519060200190620000d992919062000213565b5050508060089080519060200190620000f492919062000213565b50620001406040518060400160405280601e81526020017f54686973206973206d79204e465420636f6e74726163742e20576f61682100008152506200014760201b62000ba01760201c565b506200056b565b620001e7816040516024016200015e9190620003bb565b6040516020818303038152906040527f41304fac000000000000000000000000000000000000000000000000000000007bffffffffffffffffffffffffffffffffffffffffffffffffffffffff19166020820180517bffffffffffffffffffffffffffffffffffffffffffffffffffffffff8381831617835250505050620001ea60201b60201c565b50565b60008151905060006a636f6e736f6c652e6c6f679050602083016000808483855afa5050505050565b828054620002219062000490565b90600052602060002090601f01602090048101928262000245576000855562000291565b82601f106200026057805160ff191683800117855562000291565b8280016001018555821562000291579182015b828111156200029057825182559160200191906001019062000273565b5b509050620002a09190620002a4565b5090565b5b80821115620002bf576000816000905550600101620002a5565b5090565b6000620002da620002d48462000408565b620003df565b905082815260208101848484011115620002f357600080fd5b620003008482856200045a565b509392505050565b600082601f8301126200031a57600080fd5b81516200032c848260208601620002c3565b91505092915050565b6000602082840312156200034857600080fd5b600082015167ffffffffffffffff8111156200036357600080fd5b620003718482850162000308565b91505092915050565b600062000387826200043e565b62000393818562000449565b9350620003a58185602086016200045a565b620003b0816200055a565b840191505092915050565b60006020820190508181036000830152620003d781846200037a565b905092915050565b6000620003eb620003fe565b9050620003f98282620004c6565b919050565b6000604051905090565b600067ffffffffffffffff8211156200042657620004256200052b565b5b62000431826200055a565b9050602081019050919050565b600081519050919050565b600082825260208201905092915050565b60005b838110156200047a5780820151818401526020810190506200045d565b838111156200048a576000848401525b50505050565b60006002820490506001821680620004a957607f821691505b60208210811415620004c057620004bf620004fc565b5b50919050565b620004d1826200055a565b810181811067ffffffffffffffff82111715620004f357620004f26200052b565b5b80604052505050565b7f4e487b7100000000000000000000000000000000000000000000000000000000600052602260045260246000fd5b7f4e487b7100000000000000000000000000000000000000000000000000000000600052604160045260246000fd5b6000601f19601f8301169050919050565b612dbe806200057b6000396000f3fe608060405234801561001057600080fd5b50600436106100f55760003560e01c80636352211e11610097578063a22cb46511610066578063a22cb46514610272578063b88d4fde1461028e578063c87b56dd146102aa578063e985e9c5146102da576100f5565b80636352211e146101d657806370a082311461020657806395d89b41146102365780639f181b5e14610254576100f5565b8063095ea7b3116100d3578063095ea7b31461017857806312f0d6bd1461019457806323b872dd1461019e57806342842e0e146101ba576100f5565b806301ffc9a7146100fa57806306fdde031461012a578063081812fc14610148575b600080fd5b610114600480360381019061010f9190611db4565b61030a565b604051610121919061225d565b60405180910390f35b6101326103ec565b60405161013f9190612278565b60405180910390f35b610162600480360381019061015d9190611e06565b61047e565b60405161016f91906121f6565b60405180910390f35b610192600480360381019061018d9190611d78565b610503565b005b61019c61061b565b005b6101b860048036038101906101b39190611c72565b6106c0565b005b6101d460048036038101906101cf9190611c72565b610720565b005b6101f060048036038101906101eb9190611e06565b610740565b6040516101fd91906121f6565b60405180910390f35b610220600480360381019061021b9190611c0d565b6107f2565b60405161022d91906124ca565b60405180910390f35b61023e6108aa565b60405161024b9190612278565b60405180910390f35b61025c61093c565b60405161026991906124ca565b60405180910390f35b61028c60048036038101906102879190611d3c565b610942565b005b6102a860048036038101906102a39190611cc1565b610958565b005b6102c460048036038101906102bf9190611e06565b6109ba565b6040516102d19190612278565b60405180910390f35b6102f460048036038101906102ef9190611c36565b610b0c565b604051610301919061225d565b60405180910390f35b60007f80ac58cd000000000000000000000000000000000000000000000000000000007bffffffffffffffffffffffffffffffffffffffffffffffffffffffff1916827bffffffffffffffffffffffffffffffffffffffffffffffffffffffff191614806103d557507f5b5e139f000000000000000000000000000000000000000000000000000000007bffffffffffffffffffffffffffffffffffffffffffffffffffffffff1916827bffffffffffffffffffffffffffffffffffffffffffffffffffffffff1916145b806103e557506103e482610c39565b5b9050919050565b6060600080546103fb90612704565b80601f016020809104026020016040519081016040528092919081815260200182805461042790612704565b80156104745780601f1061044957610100808354040283529160200191610474565b820191906000526020600020905b81548152906001019060200180831161045757829003601f168201915b5050505050905090565b600061048982610ca3565b6104c8576040517f08c379a00000000000000000000000000000000000000000000000000000000081526004016104bf9061244a565b60405180910390fd5b6004600083815260200190815260200160002060009054906101000a900473ffffffffffffffffffffffffffffffffffffffff169050919050565b600061050e82610740565b90508073ffffffffffffffffffffffffffffffffffffffff168373ffffffffffffffffffffffffffffffffffffffff16141561057f576040517f08c379a00000000000000000000000000000000000000000000000000000000081526004016105769061248a565b60405180910390fd5b8073ffffffffffffffffffffffffffffffffffffffff1661059e610d0f565b73ffffffffffffffffffffffffffffffffffffffff1614806105cd57506105cc816105c7610d0f565b610b0c565b5b61060c576040517f08c379a00000000000000000000000000000000000000000000000000000000081526004016106039061238a565b60405180910390fd5b6106168383610d17565b505050565b6007600081548092919061062e90612767565b9190505550600060075490506000600861064783610dd0565b6040516020016106589291906121d2565b60405160208183030381529060405290506106733383610f7d565b61067d8282610f9b565b6106bc6040518060400160405280600b81526020017f4d696e746564204e4654230000000000000000000000000000000000000000008152508361100f565b5050565b6106d16106cb610d0f565b826110ab565b610710576040517f08c379a0000000000000000000000000000000000000000000000000000000008152600401610707906124aa565b60405180910390fd5b61071b838383611189565b505050565b61073b83838360405180602001604052806000815250610958565b505050565b6000806002600084815260200190815260200160002060009054906101000a900473ffffffffffffffffffffffffffffffffffffffff169050600073ffffffffffffffffffffffffffffffffffffffff168173ffffffffffffffffffffffffffffffffffffffff1614156107e9576040517f08c379a00000000000000000000000000000000000000000000000000000000081526004016107e0906123ca565b60405180910390fd5b80915050919050565b60008073ffffffffffffffffffffffffffffffffffffffff168273ffffffffffffffffffffffffffffffffffffffff161415610863576040517f08c379a000000000000000000000000000000000000000000000000000000000815260040161085a906123aa565b60405180910390fd5b600360008373ffffffffffffffffffffffffffffffffffffffff1673ffffffffffffffffffffffffffffffffffffffff168152602001908152602001600020549050919050565b6060600180546108b990612704565b80601f01602080910402602001604051908101604052809291908181526020018280546108e590612704565b80156109325780601f1061090757610100808354040283529160200191610932565b820191906000526020600020905b81548152906001019060200180831161091557829003601f168201915b5050505050905090565b60075481565b61095461094d610d0f565b83836113f0565b5050565b610969610963610d0f565b836110ab565b6109a8576040517f08c379a000000000000000000000000000000000000000000000000000000000815260040161099f906124aa565b60405180910390fd5b6109b48484848461155d565b50505050565b60606109c582610ca3565b610a04576040517f08c379a00000000000000000000000000000000000000000000000000000000081526004016109fb9061242a565b60405180910390fd5b6000600660008481526020019081526020016000208054610a2490612704565b80601f0160208091040260200160405190810160405280929190818152602001828054610a5090612704565b8015610a9d5780601f10610a7257610100808354040283529160200191610a9d565b820191906000526020600020905b815481529060010190602001808311610a8057829003601f168201915b505050505090506000610aae6115b9565b9050600081511415610ac4578192505050610b07565b600082511115610af9578082604051602001610ae19291906121ae565b60405160208183030381529060405292505050610b07565b610b02846115d0565b925050505b919050565b6000600560008473ffffffffffffffffffffffffffffffffffffffff1673ffffffffffffffffffffffffffffffffffffffff16815260200190815260200160002060008373ffffffffffffffffffffffffffffffffffffffff1673ffffffffffffffffffffffffffffffffffffffff16815260200190815260200160002060009054906101000a900460ff16905092915050565b610c3681604051602401610bb49190612278565b6040516020818303038152906040527f41304fac000000000000000000000000000000000000000000000000000000007bffffffffffffffffffffffffffffffffffffffffffffffffffffffff19166020820180517bffffffffffffffffffffffffffffffffffffffffffffffffffffffff8381831617835250505050611677565b50565b60007f01ffc9a7000000000000000000000000000000000000000000000000000000007bffffffffffffffffffffffffffffffffffffffffffffffffffffffff1916827bffffffffffffffffffffffffffffffffffffffffffffffffffffffff1916149050919050565b60008073ffffffffffffffffffffffffffffffffffffffff166002600084815260200190815260200160002060009054906101000a900473ffffffffffffffffffffffffffffffffffffffff1673ffffffffffffffffffffffffffffffffffffffff1614159050919050565b600033905090565b816004600083815260200190815260200160002060006101000a81548173ffffffffffffffffffffffffffffffffffffffff021916908373ffffffffffffffffffffffffffffffffffffffff160217905550808273ffffffffffffffffffffffffffffffffffffffff16610d8a83610740565b73ffffffffffffffffffffffffffffffffffffffff167f8c5be1e5ebec7d5bd14f71427d1e84f3dd0314c0f7b2291e5b200ac8c7c3b92560405160405180910390a45050565b60606000821415610e18576040518060400160405280600181526020017f30000000000000000000000000000000000000000000000000000000000000008152509050610f78565b600082905060005b60008214610e4a578080610e3390612767565b915050600a82610e4391906125e9565b9150610e20565b60008167ffffffffffffffff811115610e8c577f4e487b7100000000000000000000000000000000000000000000000000000000600052604160045260246000fd5b6040519080825280601f01601f191660200182016040528015610ebe5781602001600182028036833780820191505090505b5090505b60008514610f7157600182610ed7919061261a565b9150600a85610ee691906127b0565b6030610ef29190612593565b60f81b818381518110610f2e577f4e487b7100000000000000000000000000000000000000000000000000000000600052603260045260246000fd5b60200101907effffffffffffffffffffffffffffffffffffffffffffffffffffffffffffff1916908160001a905350600a85610f6a91906125e9565b9450610ec2565b8093505050505b919050565b610f978282604051806020016040528060008152506116a0565b5050565b610fa482610ca3565b610fe3576040517f08c379a0000000000000000000000000000000000000000000000000000000008152600401610fda906123ea565b60405180910390fd5b8060066000848152602001908152602001600020908051906020019061100a929190611a99565b505050565b6110a7828260405160240161102592919061229a565b6040516020818303038152906040527f9710a9d0000000000000000000000000000000000000000000000000000000007bffffffffffffffffffffffffffffffffffffffffffffffffffffffff19166020820180517bffffffffffffffffffffffffffffffffffffffffffffffffffffffff8381831617835250505050611677565b5050565b60006110b682610ca3565b6110f5576040517f08c379a00000000000000000000000000000000000000000000000000000000081526004016110ec9061236a565b60405180910390fd5b600061110083610740565b90508073ffffffffffffffffffffffffffffffffffffffff168473ffffffffffffffffffffffffffffffffffffffff16148061114257506111418185610b0c565b5b8061118057508373ffffffffffffffffffffffffffffffffffffffff166111688461047e565b73ffffffffffffffffffffffffffffffffffffffff16145b91505092915050565b8273ffffffffffffffffffffffffffffffffffffffff166111a982610740565b73ffffffffffffffffffffffffffffffffffffffff16146111ff576040517f08c379a00000000000000000000000000000000000000000000000000000000081526004016111f6906122ea565b60405180910390fd5b600073ffffffffffffffffffffffffffffffffffffffff168273ffffffffffffffffffffffffffffffffffffffff16141561126f576040517f08c379a00000000000000000000000000000000000000000000000000000000081526004016112669061232a565b60405180910390fd5b61127a8383836116fb565b611285600082610d17565b6001600360008573ffffffffffffffffffffffffffffffffffffffff1673ffffffffffffffffffffffffffffffffffffffff16815260200190815260200160002060008282546112d5919061261a565b925050819055506001600360008473ffffffffffffffffffffffffffffffffffffffff1673ffffffffffffffffffffffffffffffffffffffff168152602001908152602001600020600082825461132c9190612593565b92505081905550816002600083815260200190815260200160002060006101000a81548173ffffffffffffffffffffffffffffffffffffffff021916908373ffffffffffffffffffffffffffffffffffffffff160217905550808273ffffffffffffffffffffffffffffffffffffffff168473ffffffffffffffffffffffffffffffffffffffff167fddf252ad1be2c89b69c2b068fc378daa952ba7f163c4a11628f55a4df523b3ef60405160405180910390a46113eb838383611700565b505050565b8173ffffffffffffffffffffffffffffffffffffffff168373ffffffffffffffffffffffffffffffffffffffff16141561145f576040517f08c379a00000000000000000000000000000000000000000000000000000000081526004016114569061234a565b60405180910390fd5b80600560008573ffffffffffffffffffffffffffffffffffffffff1673ffffffffffffffffffffffffffffffffffffffff16815260200190815260200160002060008473ffffffffffffffffffffffffffffffffffffffff1673ffffffffffffffffffffffffffffffffffffffff16815260200190815260200160002060006101000a81548160ff0219169083151502179055508173ffffffffffffffffffffffffffffffffffffffff168373ffffffffffffffffffffffffffffffffffffffff167f17307eab39ab6107e8899845ad3d59bd9653f200f220920489ca2b5937696c3183604051611550919061225d565b60405180910390a3505050565b611568848484611189565b61157484848484611705565b6115b3576040517f08c379a00000000000000000000000000000000000000000000000000000000081526004016115aa906122ca565b60405180910390fd5b50505050565b606060405180602001604052806000815250905090565b60606115db82610ca3565b61161a576040517f08c379a00000000000000000000000000000000000000000000000000000000081526004016116119061246a565b60405180910390fd5b60006116246115b9565b90506000815111611644576040518060200160405280600081525061166f565b8061164e84610dd0565b60405160200161165f9291906121ae565b6040516020818303038152906040525b915050919050565b60008151905060006a636f6e736f6c652e6c6f679050602083016000808483855afa5050505050565b6116aa838361189c565b6116b76000848484611705565b6116f6576040517f08c379a00000000000000000000000000000000000000000000000000000000081526004016116ed906122ca565b60405180910390fd5b505050565b505050565b505050565b60006117268473ffffffffffffffffffffffffffffffffffffffff16611a76565b1561188f578373ffffffffffffffffffffffffffffffffffffffff1663150b7a0261174f610d0f565b8786866040518563ffffffff1660e01b81526004016117719493929190612211565b602060405180830381600087803b15801561178b57600080fd5b505af19250505080156117bc57506040513d601f19601f820116820180604052508101906117b99190611ddd565b60015b61183f573d80600081146117ec576040519150601f19603f3d011682016040523d82523d6000602084013e6117f1565b606091505b50600081511415611837576040517f08c379a000000000000000000000000000000000000000000000000000000000815260040161182e906122ca565b60405180910390fd5b805181602001fd5b63150b7a0260e01b7bffffffffffffffffffffffffffffffffffffffffffffffffffffffff1916817bffffffffffffffffffffffffffffffffffffffffffffffffffffffff191614915050611894565b600190505b949350505050565b600073ffffffffffffffffffffffffffffffffffffffff168273ffffffffffffffffffffffffffffffffffffffff16141561190c576040517f08c379a00000000000000000000000000000000000000000000000000000000081526004016119039061240a565b60405180910390fd5b61191581610ca3565b15611955576040517f08c379a000000000000000000000000000000000000000000000000000000000815260040161194c9061230a565b60405180910390fd5b611961600083836116fb565b6001600360008473ffffffffffffffffffffffffffffffffffffffff1673ffffffffffffffffffffffffffffffffffffffff16815260200190815260200160002060008282546119b19190612593565b92505081905550816002600083815260200190815260200160002060006101000a81548173ffffffffffffffffffffffffffffffffffffffff021916908373ffffffffffffffffffffffffffffffffffffffff160217905550808273ffffffffffffffffffffffffffffffffffffffff16600073ffffffffffffffffffffffffffffffffffffffff167fddf252ad1be2c89b69c2b068fc378daa952ba7f163c4a11628f55a4df523b3ef60405160405180910390a4611a7260008383611700565b5050565b6000808273ffffffffffffffffffffffffffffffffffffffff163b119050919050565b828054611aa590612704565b90600052602060002090601f016020900481019282611ac75760008555611b0e565b82601f10611ae057805160ff1916838001178555611b0e565b82800160010185558215611b0e579182015b82811115611b0d578251825591602001919060010190611af2565b5b509050611b1b9190611b1f565b5090565b5b80821115611b38576000816000905550600101611b20565b5090565b6000611b4f611b4a8461250a565b6124e5565b905082815260208101848484011115611b6757600080fd5b611b728482856126c2565b509392505050565b600081359050611b8981612d2c565b92915050565b600081359050611b9e81612d43565b92915050565b600081359050611bb381612d5a565b92915050565b600081519050611bc881612d5a565b92915050565b600082601f830112611bdf57600080fd5b8135611bef848260208601611b3c565b91505092915050565b600081359050611c0781612d71565b92915050565b600060208284031215611c1f57600080fd5b6000611c2d84828501611b7a565b91505092915050565b60008060408385031215611c4957600080fd5b6000611c5785828601611b7a565b9250506020611c6885828601611b7a565b9150509250929050565b600080600060608486031215611c8757600080fd5b6000611c9586828701611b7a565b9350506020611ca686828701611b7a565b9250506040611cb786828701611bf8565b9150509250925092565b60008060008060808587031215611cd757600080fd5b6000611ce587828801611b7a565b9450506020611cf687828801611b7a565b9350506040611d0787828801611bf8565b925050606085013567ffffffffffffffff811115611d2457600080fd5b611d3087828801611bce565b91505092959194509250565b60008060408385031215611d4f57600080fd5b6000611d5d85828601611b7a565b9250506020611d6e85828601611b8f565b9150509250929050565b60008060408385031215611d8b57600080fd5b6000611d9985828601611b7a565b9250506020611daa85828601611bf8565b9150509250929050565b600060208284031215611dc657600080fd5b6000611dd484828501611ba4565b91505092915050565b600060208284031215611def57600080fd5b6000611dfd84828501611bb9565b91505092915050565b600060208284031215611e1857600080fd5b6000611e2684828501611bf8565b91505092915050565b611e388161264e565b82525050565b611e4781612660565b82525050565b6000611e5882612550565b611e628185612566565b9350611e728185602086016126d1565b611e7b8161289d565b840191505092915050565b6000611e918261255b565b611e9b8185612577565b9350611eab8185602086016126d1565b611eb48161289d565b840191505092915050565b6000611eca8261255b565b611ed48185612588565b9350611ee48185602086016126d1565b80840191505092915050565b60008154611efd81612704565b611f078186612588565b94506001821660008114611f225760018114611f3357611f66565b60ff19831686528186019350611f66565b611f3c8561253b565b60005b83811015611f5e57815481890152600182019150602081019050611f3f565b838801955050505b50505092915050565b6000611f7c603283612577565b9150611f87826128ae565b604082019050919050565b6000611f9f602583612577565b9150611faa826128fd565b604082019050919050565b6000611fc2601c83612577565b9150611fcd8261294c565b602082019050919050565b6000611fe5602483612577565b9150611ff082612975565b604082019050919050565b6000612008601983612577565b9150612013826129c4565b602082019050919050565b600061202b602c83612577565b9150612036826129ed565b604082019050919050565b600061204e603883612577565b915061205982612a3c565b604082019050919050565b6000612071602a83612577565b915061207c82612a8b565b604082019050919050565b6000612094602983612577565b915061209f82612ada565b604082019050919050565b60006120b7602e83612577565b91506120c282612b29565b604082019050919050565b60006120da602083612577565b91506120e582612b78565b602082019050919050565b60006120fd603183612577565b915061210882612ba1565b604082019050919050565b6000612120602c83612577565b915061212b82612bf0565b604082019050919050565b6000612143602f83612577565b915061214e82612c3f565b604082019050919050565b6000612166602183612577565b915061217182612c8e565b604082019050919050565b6000612189603183612577565b915061219482612cdd565b604082019050919050565b6121a8816126b8565b82525050565b60006121ba8285611ebf565b91506121c68284611ebf565b91508190509392505050565b60006121de8285611ef0565b91506121ea8284611ebf565b91508190509392505050565b600060208201905061220b6000830184611e2f565b92915050565b60006080820190506122266000830187611e2f565b6122336020830186611e2f565b612240604083018561219f565b81810360608301526122528184611e4d565b905095945050505050565b60006020820190506122726000830184611e3e565b92915050565b600060208201905081810360008301526122928184611e86565b905092915050565b600060408201905081810360008301526122b48185611e86565b90506122c3602083018461219f565b9392505050565b600060208201905081810360008301526122e381611f6f565b9050919050565b6000602082019050818103600083015261230381611f92565b9050919050565b6000602082019050818103600083015261232381611fb5565b9050919050565b6000602082019050818103600083015261234381611fd8565b9050919050565b6000602082019050818103600083015261236381611ffb565b9050919050565b600060208201905081810360008301526123838161201e565b9050919050565b600060208201905081810360008301526123a381612041565b9050919050565b600060208201905081810360008301526123c381612064565b9050919050565b600060208201905081810360008301526123e381612087565b9050919050565b60006020820190508181036000830152612403816120aa565b9050919050565b60006020820190508181036000830152612423816120cd565b9050919050565b60006020820190508181036000830152612443816120f0565b9050919050565b6000602082019050818103600083015261246381612113565b9050919050565b6000602082019050818103600083015261248381612136565b9050919050565b600060208201905081810360008301526124a381612159565b9050919050565b600060208201905081810360008301526124c38161217c565b9050919050565b60006020820190506124df600083018461219f565b92915050565b60006124ef612500565b90506124fb8282612736565b919050565b6000604051905090565b600067ffffffffffffffff8211156125255761252461286e565b5b61252e8261289d565b9050602081019050919050565b60008190508160005260206000209050919050565b600081519050919050565b600081519050919050565b600082825260208201905092915050565b600082825260208201905092915050565b600081905092915050565b600061259e826126b8565b91506125a9836126b8565b9250827fffffffffffffffffffffffffffffffffffffffffffffffffffffffffffffffff038211156125de576125dd6127e1565b5b828201905092915050565b60006125f4826126b8565b91506125ff836126b8565b92508261260f5761260e612810565b5b828204905092915050565b6000612625826126b8565b9150612630836126b8565b925082821015612643576126426127e1565b5b828203905092915050565b600061265982612698565b9050919050565b60008115159050919050565b60007fffffffff0000000000000000000000000000000000000000000000000000000082169050919050565b600073ffffffffffffffffffffffffffffffffffffffff82169050919050565b6000819050919050565b82818337600083830152505050565b60005b838110156126ef5780820151818401526020810190506126d4565b838111156126fe576000848401525b50505050565b6000600282049050600182168061271c57607f821691505b602082108114156127305761272f61283f565b5b50919050565b61273f8261289d565b810181811067ffffffffffffffff8211171561275e5761275d61286e565b5b80604052505050565b6000612772826126b8565b91507fffffffffffffffffffffffffffffffffffffffffffffffffffffffffffffffff8214156127a5576127a46127e1565b5b600182019050919050565b60006127bb826126b8565b91506127c6836126b8565b9250826127d6576127d5612810565b5b828206905092915050565b7f4e487b7100000000000000000000000000000000000000000000000000000000600052601160045260246000fd5b7f4e487b7100000000000000000000000000000000000000000000000000000000600052601260045260246000fd5b7f4e487b7100000000000000000000000000000000000000000000000000000000600052602260045260246000fd5b7f4e487b7100000000000000000000000000000000000000000000000000000000600052604160045260246000fd5b6000601f19601f8301169050919050565b7f4552433732313a207472616e7366657220746f206e6f6e20455243373231526560008201527f63656976657220696d706c656d656e7465720000000000000000000000000000602082015250565b7f4552433732313a207472616e736665722066726f6d20696e636f72726563742060008201527f6f776e6572000000000000000000000000000000000000000000000000000000602082015250565b7f4552433732313a20746f6b656e20616c7265616479206d696e74656400000000600082015250565b7f4552433732313a207472616e7366657220746f20746865207a65726f2061646460008201527f7265737300000000000000000000000000000000000000000000000000000000602082015250565b7f4552433732313a20617070726f766520746f2063616c6c657200000000000000600082015250565b7f4552433732313a206f70657261746f7220717565727920666f72206e6f6e657860008201527f697374656e7420746f6b656e0000000000000000000000000000000000000000602082015250565b7f4552433732313a20617070726f76652063616c6c6572206973206e6f74206f7760008201527f6e6572206e6f7220617070726f76656420666f7220616c6c0000000000000000602082015250565b7f4552433732313a2062616c616e636520717565727920666f7220746865207a6560008201527f726f206164647265737300000000000000000000000000000000000000000000602082015250565b7f4552433732313a206f776e657220717565727920666f72206e6f6e657869737460008201527f656e7420746f6b656e0000000000000000000000000000000000000000000000602082015250565b7f45524337323155524953746f726167653a2055524920736574206f66206e6f6e60008201527f6578697374656e7420746f6b656e000000000000000000000000000000000000602082015250565b7f4552433732313a206d696e7420746f20746865207a65726f2061646472657373600082015250565b7f45524337323155524953746f726167653a2055524920717565727920666f722060008201527f6e6f6e6578697374656e7420746f6b656e000000000000000000000000000000602082015250565b7f4552433732313a20617070726f76656420717565727920666f72206e6f6e657860008201527f697374656e7420746f6b656e0000000000000000000000000000000000000000602082015250565b7f4552433732314d657461646174613a2055524920717565727920666f72206e6f60008201527f6e6578697374656e7420746f6b656e0000000000000000000000000000000000602082015250565b7f4552433732313a20617070726f76616c20746f2063757272656e74206f776e6560008201527f7200000000000000000000000000000000000000000000000000000000000000602082015250565b7f4552433732313a207472616e736665722063616c6c6572206973206e6f74206f60008201527f776e6572206e6f7220617070726f766564000000000000000000000000000000602082015250565b612d358161264e565b8114612d4057600080fd5b50565b612d4c81612660565b8114612d5757600080fd5b50565b612d638161266c565b8114612d6e57600080fd5b50565b612d7a816126b8565b8114612d8557600080fd5b5056fea26469706673582212204acb94a158c8592fdba19681229dfe926b77f957f4486b9654a7438049babc6864736f6c63430008040033",
  "linkReferences": {},
  "deployedLinkReferences": {}
}